:020000040000FA
:100000008316031303308700003086000030880019
:10001000831203130030860000308800071C132071
:10002000871C1C200E2847200608F73E03192520B0
:100030000608013E8600080047200608003E031916
:1000400036200608FF3E8600080047200030860064
:100050000808F73E031930200808013E88000E28E2
:10006000472000308600FF30880008004720093014
:1000700086000808003E031941200808FF3E88005A
:100080000E284720093086000A3088000800C83052
:100090008C00FA308D0000008D0B4B288C0B49280A
:0200A000080056
:02400E00F13F80
:00000001FF
